:100000000C9434000C9451000C9451000C94510049
:100010000C9451000C9451000C9451000C9451001C
:100020000C9451000C9451000C9451000C9411014B
:100030000C9451000C9451000C9451000C945100FC
:100040000C9451000C9451000C949E000C9451009F
:100050000C9451000C9451000C9451000C945100DC
:100060000C9451000C94510011241FBECFEFD4E02A
:10007000DEBFCDBF11E0A0E0B1E0E2E7F3E002C0F7
:1000800005900D92A230B107D9F711E0A2E0B1E0DE
:1000900001C01D92A733B107E1F70E9488010C94BB
:1000A000B7010C9400009093C5008093C40082E0D7
:1000B0008093C00088E98093C1008EE08093C200E5
:1000C0000895109285001092840081EE94E0909340
:1000D00089008093880089E08093810082E080938A
:1000E0006F00B19A089583EA84BD81E085BD569A78
:1000F000559A93E89093B0008093B100239A0895A5
:10010000909102019923C9F490910401E7E0F1E094
:10011000E90FF11D8083809104018F5F80930401BA
:10012000803310F01092040190910401809103013A
:10013000981719F481E08093020108951F920F929D
:100140000FB60F9211242F933F934F935F936F93AA
:100150007F938F939F93AF93BF93EF93FF93809180
:10016000C6000E948000FF91EF91BF91AF919F91D7
:100170008F917F916F915F914F913F912F910F9050
:100180000FBE0F901F90189580910201882331F4C3
:100190009091040180910301981799F080910301D7
:1001A000E7E0F1E0E80FF11D8081909103019F5F8E
:1001B00090930301903310F010920301109202010A
:1001C000089580E00895809102018823E9F49091D8
:1001D000040180910301891740F48091040120916A
:1001E000030190E0821B9109089590910401809190
:1001F0000301981760F4809104012091030190E0BD
:10020000C096821B9109089580E390E0089580E0F4
:1002100090E00895109202011092040110920301DF
:1002200008951F920F920FB60F9211242F933F93B0
:100230004F935F936F937F938F939F93AF93BF93EE
:10024000EF93FF9380910001882399F5809102013B
:10025000882331F49091040180910301981711F1E2
:100260000E94C40080FF02C0109205019091050118
:10027000913039F0913018F0923039F404C087BDD4
:1002800004C088BD02C08093B300809105018F5FD8
:1002900080930501833010F01092050180E5809372
:1002A000060107C00E940A011092050181E08093B7
:1002B000000180910601882329F080910601815078
:1002C00080930601FF91EF91BF91AF919F918F9124
:1002D0007F916F915F914F913F912F910F900FBE42
:1002E0000F901F901895E0ECF0E0908195FFFDCF06
:1002F0008093C60008958091C000882344F4A6EC42
:10030000B0E0E0ECF0E08C9180818823E4F3089584
:100310008CE090E00E9453000E947B010E946100EB
:100320000E9473000E940A012AE088E190E00FB663
:10033000F894A895809360000FBE20936000A89564
:100340007894C3EBD0E080910001882341F40DC084
:1003500080910601882319F417BC18BC18820E94EA
:10036000E3008831A8F310920001A895ECCFF8942F
:02037000FFCFBD
:02037200010088
:00000001FF
